{
  "_format": "hh-sol-artifact-1",
  "contractName": "FaucetMSC",
  "sourceName": "contracts/FaucetMSC.sol",
  "abi": [
    {
      "inputs": [
        {
          "internalType": "address",
          "name": "_tokenAddress",
          "type": "address"
        }
      ],
      "stateMutability": "nonpayable",
      "type": "constructor"
    },
    {
      "inputs": [
        {
          "internalType": "address",
          "name": "owner",
          "type": "address"
        }
      ],
      "name": "OwnableInvalidOwner",
      "type": "error"
    },
    {
      "inputs": [
        {
          "internalType": "address",
          "name": "account",
          "type": "address"
        }
      ],
      "name": "OwnableUnauthorizedAccount",
      "type": "error"
    },
    {
      "inputs": [],
      "name": "ReentrancyGuardReentrantCall",
      "type": "error"
    },
    {
      "anonymous": false,
      "inputs": [
        {
          "indexed": true,
          "internalType": "address",
          "name": "previousOwner",
          "type": "address"
        },
        {
          "indexed": true,
          "internalType": "address",
          "name": "newOwner",
          "type": "address"
        }
      ],
      "name": "OwnershipTransferred",
      "type": "event"
    },
    {
      "anonymous": false,
      "inputs": [
        {
          "indexed": false,
          "internalType": "uint256",
          "name": "amount",
          "type": "uint256"
        },
        {
          "indexed": false,
          "internalType": "uint256",
          "name": "lockTime",
          "type": "uint256"
        }
      ],
      "name": "SettingsUpdated",
      "type": "event"
    },
    {
      "anonymous": false,
      "inputs": [
        {
          "indexed": true,
          "internalType": "address",
          "name": "user",
          "type": "address"
        },
        {
          "indexed": false,
          "internalType": "uint256",
          "name": "amount",
          "type": "uint256"
        }
      ],
      "name": "TokensDispensed",
      "type": "event"
    },
    {
      "inputs": [],
      "name": "amountPerRequest",
      "outputs": [
        {
          "internalType": "uint256",
          "name": "",
          "type": "uint256"
        }
      ],
      "stateMutability": "view",
      "type": "function"
    },
    {
      "inputs": [],
      "name": "getBalance",
      "outputs": [
        {
          "internalType": "uint256",
          "name": "",
          "type": "uint256"
        }
      ],
      "stateMutability": "view",
      "type": "function"
    },
    {
      "inputs": [],
      "name": "lockTime",
      "outputs": [
        {
          "internalType": "uint256",
          "name": "",
          "type": "uint256"
        }
      ],
      "stateMutability": "view",
      "type": "function"
    },
    {
      "inputs": [
        {
          "internalType": "address",
          "name": "user",
          "type": "address"
        }
      ],
      "name": "nextAccessTime",
      "outputs": [
        {
          "internalType": "uint256",
          "name": "nextAccessTime",
          "type": "uint256"
        }
      ],
      "stateMutability": "view",
      "type": "function"
    },
    {
      "inputs": [],
      "name": "owner",
      "outputs": [
        {
          "internalType": "address",
          "name": "",
          "type": "address"
        }
      ],
      "stateMutability": "view",
      "type": "function"
    },
    {
      "inputs": [],
      "name": "renounceOwnership",
      "outputs": [],
      "stateMutability": "nonpayable",
      "type": "function"
    },
    {
      "inputs": [],
      "name": "requestTokens",
      "outputs": [],
      "stateMutability": "nonpayable",
      "type": "function"
    },
    {
      "inputs": [
        {
          "internalType": "uint256",
          "name": "_amount",
          "type": "uint256"
        }
      ],
      "name": "setAmountPerRequest",
      "outputs": [],
      "stateMutability": "nonpayable",
      "type": "function"
    },
    {
      "inputs": [
        {
          "internalType": "uint256",
          "name": "_time",
          "type": "uint256"
        }
      ],
      "name": "setLockTime",
      "outputs": [],
      "stateMutability": "nonpayable",
      "type": "function"
    },
    {
      "inputs": [
        {
          "internalType": "address",
          "name": "user",
          "type": "address"
        }
      ],
      "name": "timeUntilNextRequest",
      "outputs": [
        {
          "internalType": "uint256",
          "name": "",
          "type": "uint256"
        }
      ],
      "stateMutability": "view",
      "type": "function"
    },
    {
      "inputs": [],
      "name": "token",
      "outputs": [
        {
          "internalType": "contract MemecoinSuperCycle",
          "name": "",
          "type": "address"
        }
      ],
      "stateMutability": "view",
      "type": "function"
    },
    {
      "inputs": [
        {
          "internalType": "address",
          "name": "newOwner",
          "type": "address"
        }
      ],
      "name": "transferOwnership",
      "outputs": [],
      "stateMutability": "nonpayable",
      "type": "function"
    },
    {
      "inputs": [
        {
          "internalType": "uint256",
          "name": "_amount",
          "type": "uint256"
        }
      ],
      "name": "withdrawTokens",
      "outputs": [],
      "stateMutability": "nonpayable",
      "type": "function"
    }
  ],
  "bytecode": "0x60a0604052678ac7230489e80000600255603c60035534801561002157600080fd5b50604051611739380380611739833981810160405281019061004391906102a0565b336001600081905550600073ffffffffffffffffffffffffffffffffffffffff168173ffffffffffffffffffffffffffffffffffffffff16036100be5760006040517f1e4fbdf70000000000000000000000000000000000000000000000000000000081526004016100b591906102dc565b60405180910390fd5b6100cd8161017760201b60201c565b50600073ffffffffffffffffffffffffffffffffffffffff168173ffffffffffffffffffffffffffffffffffffffff160361013d576040517f08c379a000000000000000000000000000000000000000000000000000000000815260040161013490610354565b60405180910390fd5b8073ffffffffffffffffffffffffffffffffffffffff1660808173ffffffffffffffffffffffffffffffffffffffff168152505050610374565b6000600160009054906101000a900473ffffffffffffffffffffffffffffffffffffffff16905081600160006101000a81548173ffffffffffffffffffffffffffffffffffffffff021916908373ffffffffffffffffffffffffffffffffffffffff1602179055508173ffffffffffffffffffffffffffffffffffffffff168173ffffffffffffffffffffffffffffffffffffffff167f8be0079c531659141344cd1fd0a4f28419497f9722a3daafe3b4186f6b6457e060405160405180910390a35050565b600080fd5b600073ffffffffffffffffffffffffffffffffffffffff82169050919050565b600061026d82610242565b9050919050565b61027d81610262565b811461028857600080fd5b50565b60008151905061029a81610274565b92915050565b6000602082840312156102b6576102b561023d565b5b60006102c48482850161028b565b91505092915050565b6102d681610262565b82525050565b60006020820190506102f160008301846102cd565b92915050565b600082825260208201905092915050565b7f496e76616c696420746f6b656e20616464726573730000000000000000000000600082015250565b600061033e6015836102f7565b915061034982610308565b602082019050919050565b6000602082019050818103600083015261036d81610331565b9050919050565b6080516113876103b260003960008181610258015281816103420152818161041e015281816106010152818161072d0152610b0e01526113876000f3fe608060405234801561001057600080fd5b50600436106100cf5760003560e01c80636a9674911161008c5780639f294e51116100665780639f294e51146101c8578063ae04d45d146101f8578063f2fde38b14610214578063fc0c546a14610230576100cf565b80636a96749114610182578063715018a6146101a05780638da5cb5b146101aa576100cf565b80630d668087146100d457806312065fe0146100f2578063315a095d14610110578063359cf2b71461012c578063516fad0a14610136578063656734ed14610166575b600080fd5b6100dc61024e565b6040516100e99190610cee565b60405180910390f35b6100fa610254565b6040516101079190610cee565b60405180910390f35b61012a60048036038101906101259190610d3a565b6102f5565b005b610134610503565b005b610150600480360381019061014b9190610dc5565b610864565b60405161015d9190610cee565b60405180910390f35b610180600480360381019061017b9190610d3a565b61087c565b005b61018a61090c565b6040516101979190610cee565b60405180910390f35b6101a8610912565b005b6101b2610926565b6040516101bf9190610e01565b60405180910390f35b6101e260048036038101906101dd9190610dc5565b610950565b6040516101ef9190610cee565b60405180910390f35b610212600480360381019061020d9190610d3a565b6109f4565b005b61022e60048036038101906102299190610dc5565b610a86565b005b610238610b0c565b6040516102459190610e7b565b60405180910390f35b60035481565b60007f000000000000000000000000000000000000000000000000000000000000000073ffffffffffffffffffffffffffffffffffffffff166370a08231306040518263ffffffff1660e01b81526004016102af9190610e01565b602060405180830381865afa1580156102cc573d6000803e3d6000fd5b505050506040513d601f19601f820116820180604052508101906102f09190610eab565b905090565b6102fd610b30565b60008111610340576040517f08c379a000000000000000000000000000000000000000000000000000000000815260040161033790610f35565b60405180910390fd5b7f000000000000000000000000000000000000000000000000000000000000000073ffffffffffffffffffffffffffffffffffffffff166370a08231306040518263ffffffff1660e01b81526004016103999190610e01565b602060405180830381865afa1580156103b6573d6000803e3d6000fd5b505050506040513d601f19601f820116820180604052508101906103da9190610eab565b81111561041c576040517f08c379a000000000000000000000000000000000000000000000000000000000815260040161041390610fa1565b60405180910390fd5b7f000000000000000000000000000000000000000000000000000000000000000073ffffffffffffffffffffffffffffffffffffffff1663a9059cbb610460610926565b836040518363ffffffff1660e01b815260040161047e929190610fc1565b6020604051808303816000875af115801561049d573d6000803e3d6000fd5b505050506040513d601f19601f820116820180604052508101906104c19190611022565b610500576040517f08c379a00000000000000000000000000000000000000000000000000000000081526004016104f79061109b565b60405180910390fd5b50565b61050b610bb7565b600073ffffffffffffffffffffffffffffffffffffffff163373ffffffffffffffffffffffffffffffffffffffff160361057a576040517f08c379a000000000000000000000000000000000000000000000000000000000815260040161057190611107565b60405180910390fd5b600460003373ffffffffffffffffffffffffffffffffffffffff1673ffffffffffffffffffffffffffffffffffffffff168152602001908152602001600020544210156105fc576040517f08c379a00000000000000000000000000000000000000000000000000000000081526004016105f390611199565b60405180910390fd5b6002547f000000000000000000000000000000000000000000000000000000000000000073ffffffffffffffffffffffffffffffffffffffff166370a08231306040518263ffffffff1660e01b81526004016106589190610e01565b602060405180830381865afa158015610675573d6000803e3d6000fd5b505050506040513d601f19601f820116820180604052508101906106999190610eab565b10156106da576040517f08c379a00000000000000000000000000000000000000000000000000000000081526004016106d190611205565b60405180910390fd5b600354426106e89190611254565b600460003373ffffffffffffffffffffffffffffffffffffffff1673ffffffffffffffffffffffffffffffffffffffff168152602001908152602001600020819055507f000000000000000000000000000000000000000000000000000000000000000073ffffffffffffffffffffffffffffffffffffffff1663a9059cbb336002546040518363ffffffff1660e01b8152600401610788929190610fc1565b6020604051808303816000875af11580156107a7573d6000803e3d6000fd5b505050506040513d601f19601f820116820180604052508101906107cb9190611022565b61080a576040517f08c379a00000000000000000000000000000000000000000000000000000000081526004016108019061109b565b60405180910390fd5b3373ffffffffffffffffffffffffffffffffffffffff167f1746eddb7d6a8aeb41880132d25f30f109b978297bb7bea346105e28836704ba6002546040516108529190610cee565b60405180910390a2610862610bfd565b565b60046020528060005260406000206000915090505481565b610884610b30565b600081116108c7576040517f08c379a00000000000000000000000000000000000000000000000000000000081526004016108be90610f35565b60405180910390fd5b806002819055507f290c7608baac88950f6f2bf919aee31e5caf8c7bf387f0e489159253ad2e39d581600354604051610901929190611288565b60405180910390a150565b60025481565b61091a610b30565b6109246000610c07565b565b6000600160009054906101000a900473ffffffffffffffffffffffffffffffffffffffff16905090565b6000600460008373ffffffffffffffffffffffffffffffffffffffff1673ffffffffffffffffffffffffffffffffffffffff1681526020019081526020016000205442106109a157600090506109ef565b42600460008473ffffffffffffffffffffffffffffffffffffffff1673ffffffffffffffffffffffffffffffffffffffff168152602001908152602001600020546109ec91906112b1565b90505b919050565b6109fc610b30565b60008111610a3f576040517f08c379a0000000000000000000000000000000000000000000000000000000008152600401610a3690611331565b60405180910390fd5b806003819055507f290c7608baac88950f6f2bf919aee31e5caf8c7bf387f0e489159253ad2e39d5600254600354604051610a7b929190611288565b60405180910390a150565b610a8e610b30565b600073ffffffffffffffffffffffffffffffffffffffff168173ffffffffffffffffffffffffffffffffffffffff1603610b005760006040517f1e4fbdf7000000000000000000000000000000000000000000000000000000008152600401610af79190610e01565b60405180910390fd5b610b0981610c07565b50565b7f000000000000000000000000000000000000000000000000000000000000000081565b610b38610ccd565b73ffffffffffffffffffffffffffffffffffffffff16610b56610926565b73ffffffffffffffffffffffffffffffffffffffff1614610bb557610b79610ccd565b6040517f118cdaa7000000000000000000000000000000000000000000000000000000008152600401610bac9190610e01565b60405180910390fd5b565b600260005403610bf3576040517f3ee5aeb500000000000000000000000000000000000000000000000000000000815260040160405180910390fd5b6002600081905550565b6001600081905550565b6000600160009054906101000a900473ffffffffffffffffffffffffffffffffffffffff16905081600160006101000a81548173ffffffffffffffffffffffffffffffffffffffff021916908373ffffffffffffffffffffffffffffffffffffffff1602179055508173ffffffffffffffffffffffffffffffffffffffff168173ffffffffffffffffffffffffffffffffffffffff167f8be0079c531659141344cd1fd0a4f28419497f9722a3daafe3b4186f6b6457e060405160405180910390a35050565b600033905090565b6000819050919050565b610ce881610cd5565b82525050565b6000602082019050610d036000830184610cdf565b92915050565b600080fd5b610d1781610cd5565b8114610d2257600080fd5b50565b600081359050610d3481610d0e565b92915050565b600060208284031215610d5057610d4f610d09565b5b6000610d5e84828501610d25565b91505092915050565b600073ffffffffffffffffffffffffffffffffffffffff82169050919050565b6000610d9282610d67565b9050919050565b610da281610d87565b8114610dad57600080fd5b50565b600081359050610dbf81610d99565b92915050565b600060208284031215610ddb57610dda610d09565b5b6000610de984828501610db0565b91505092915050565b610dfb81610d87565b82525050565b6000602082019050610e166000830184610df2565b92915050565b6000819050919050565b6000610e41610e3c610e3784610d67565b610e1c565b610d67565b9050919050565b6000610e5382610e26565b9050919050565b6000610e6582610e48565b9050919050565b610e7581610e5a565b82525050565b6000602082019050610e906000830184610e6c565b92915050565b600081519050610ea581610d0e565b92915050565b600060208284031215610ec157610ec0610d09565b5b6000610ecf84828501610e96565b91505092915050565b600082825260208201905092915050565b7f416d6f756e74206d7573742062652067726561746572207468616e2030000000600082015250565b6000610f1f601d83610ed8565b9150610f2a82610ee9565b602082019050919050565b60006020820190508181036000830152610f4e81610f12565b9050919050565b7f496e73756666696369656e742062616c616e6365000000000000000000000000600082015250565b6000610f8b601483610ed8565b9150610f9682610f55565b602082019050919050565b60006020820190508181036000830152610fba81610f7e565b9050919050565b6000604082019050610fd66000830185610df2565b610fe36020830184610cdf565b9392505050565b60008115159050919050565b610fff81610fea565b811461100a57600080fd5b50565b60008151905061101c81610ff6565b92915050565b60006020828403121561103857611037610d09565b5b60006110468482850161100d565b91505092915050565b7f5472616e73666572206661696c65640000000000000000000000000000000000600082015250565b6000611085600f83610ed8565b91506110908261104f565b602082019050919050565b600060208201905081810360008301526110b481611078565b9050919050565b7f43616e6e6f742073656e6420746f6b656e207a65726f20616464726573730000600082015250565b60006110f1601e83610ed8565b91506110fc826110bb565b602082019050919050565b60006020820190508181036000830152611120816110e4565b9050919050565b7f506c6561736520776169742031206d696e75746573206265747765656e20726560008201527f7175657374730000000000000000000000000000000000000000000000000000602082015250565b6000611183602683610ed8565b915061118e82611127565b604082019050919050565b600060208201905081810360008301526111b281611176565b9050919050565b7f46617563657420656d7074790000000000000000000000000000000000000000600082015250565b60006111ef600c83610ed8565b91506111fa826111b9565b602082019050919050565b6000602082019050818103600083015261121e816111e2565b9050919050565b7f4e487b7100000000000000000000000000000000000000000000000000000000600052601160045260246000fd5b600061125f82610cd5565b915061126a83610cd5565b925082820190508082111561128257611281611225565b5b92915050565b600060408201905061129d6000830185610cdf565b6112aa6020830184610cdf565b9392505050565b60006112bc82610cd5565b91506112c783610cd5565b92508282039050818111156112df576112de611225565b5b92915050565b7f54696d65206d7573742062652067726561746572207468616e20300000000000600082015250565b600061131b601b83610ed8565b9150611326826112e5565b602082019050919050565b6000602082019050818103600083015261134a8161130e565b905091905056fea26469706673582212205ab9d16b34edd9e8ce41f5c2af596252346044026ed5833cd2e3ff81d123cdd664736f6c634300081c0033",
  "linkReferences": {},
  "deployedLinkReferences": {}
}